:02000000D12C01
:06000600000000000800EC
:0E000C00213083120313FD00FD0B0A280800AB
:10001A000F3083120313FC004730FD00FD0B132839
:0A002A00FC0B132800000000080082
:1000340083160313C01B21288312871323288312DA
:1000440087178316401B2928831207132B28831232
:1000540007178316C01A3128831287123328831294
:1000640087168316401A3928831207123B288312F5
:100074000716831632184128831207154328831262
:1000840007118715032087118316C0194C28831282
:1000940087134E2883128717831640195428831216
:1000A40007135628831207178316C0185C28831277
:1000B40087125E28831287168316401864288312D9
:1000C4000712662883120716831632186C288312C7
:1000D40007156E28831207118715032087118316CD
:0C00E400321C76280D207728062008002A
:1000F0008316031332103F08C0001A2083163214EF
:020100000800F5
:100102009328803083160313BB00A628C030BB009F
:10011200A6289430BB00A628D430BB00A628803085
:10012200BB00A628831603133B08013A0319822851
:100132003B08023A031987283B08033A03198A2825
:100142003B08043A03198D2890283C03F0003B0831
:10015200F0077008BB007008C0001A208316321026
:10016200BE013E083D07840000080319C0283E086E
:100172003D0784000008BF007820BE0AB22832146E
:02018200080073
:10018400803083120313F000803083163C06700223
:10019400031DCE283B08143C0318D228BB01BC0124
:0A01A4003B08F0003C08F1000800E1
:0E01AE008316031334088A0033088200080009
:1001BC000C3083160313C0001A2001308316B900CB
:1001CC000030BA0080303A06F00080307002031D17
:1001DC00F128153039020318FE280130BB0039080C
:1001EC00BC005E30BD008120B90A0319BA0AE828A8
:1001FC000130BB003708BC006C30BD008120B70A51
:10020C000319B80A3708BB003808BC00C2207008B4
:10021C00B7007108B8000130BB007008BC006E302C
:10022C00BD008120B70A0319B80A3708BB0038088B
:10023C00BC00C2207008B7007108B8000130BB00C8
:10024C007008BC006A30BD008120B70A0319B80AD7
:10025C003708BB003808BC00C2207008B700710812
:10026C00B8000130BB007008BC006630BD008120B6
:10027C00B70A0319B80A3708BB003808BC00C220FB
:10028C007008B7007108B8000130BB007008BC00E2
:10029C006830BD008120B70A0319B80A3708BB00C3
:1002AC003808BC00C2207008B7007108B8000130D3
:1002BC00BB007008BC005030BD008120B70A031988
:1002CC00B80A3708BB003808BC00C2207008B70059
:1002DC007108B8000130BB007008BC005230BD0082
:1002EC008120B70A0319B80A3708BB003808BC00CC
:1002FC00C2207008B7007108B8000130BB0070084C
:10030C00BC004E30BD008120B70A0319B80A37086B
:10031C00BB003808BC00C2207008B7007108B800D8
:10032C000130BB007008BC004A30BD008120B70A08
:10033C000319B80A3708BB003808BC00C220700883
:10034C00B7007108B8000130BB007008BC004C301D
:10035C00BD008120B70A0319B80A3708BB0038085A
:10036C00BC00C2207008B7007108B8000130BB0097
:10037C007008BC005830BD008120B70A0319B80AB8
:10038C003708BB003808BC00C2207008B7007108E1
:10039C00B8000130BB007008BC005A30BD00812091
:1003AC00B70A0319B80A3708BB003808BC00C220CA
:1003BC007008B7007108B8000130BB007008BC00B1
:1003CC005630BD008120B70A0319B80A3708BB00A4
:1003DC003808BC00C2207008B7007108B8000130A2
:1003EC00BB007008BC005430BD008120B70A031953
:1003FC00B80A3708BB003808BC00C2207008B70028
:06040C007108B8000800B1
:10041200023083160313BB000130BC00AC30BD00B8
:1004220081200330FC009730FD00FD0B162AFC0BE7
:10043200162A000000000230BB000230BC00B030BF
:10044200BD0081200330FC009730FD00FD0B272A00
:10045200FC0B272A000000000230BB000330BC0066
:10046200AE30BD0081200330FC009730FD00FD0B53
:10047200382AFC0B382A000000000230BB0004308E
:10048200BC00A630BD0081200330FC009730FD0087
:10049200FD0B492AFC0B492A000000000230BB0078
:1004A2000530BC00A430BD0081200330FC00973031
:1004B200FD00FD0B5A2AFC0B5A2A000000000230F4
:1004C200BB000630BC00A230BD0081200330FC001E
:1004D2009730FD00FD0B6B2AFC0B6B2A000000001D
:1004E2000230BB000730BC00AA30BD0081200330BF
:1004F200FC009730FD00FD0B7C2AFC0B7C2A0000DF
:100502000000B701B80180303806F0008030700278
:10051200031D8D2A033037020318C62A0830B9009A
:100522000030BA0080303A06F00080307002031DBD
:100532009C2A0B3039020318C22A0C30C0001A2040
:1005420002308316BB003908BC00A830BD008120F0
:100552000830FB009D30FC000530FD00FD0BAF2A8A
:10056200FC0BAF2AFB0BAF2A000000000230BB00DD
:100572003908BC00A030BD008120B90A0319BA0AAB
:0C058200932AB70A0319B80A842A08005B
:10058E00013083160313BB000130BC003A30BD00AE
:10059E0081200330FC009730FD00FD0BD42AFC0BAC
:1005AE00D42A000000000130BB000230BC003C30F9
:1005BE00BD0081200330FC009730FD00FD0BE52AC5
:1005CE00FC0BE52A000000000130BB000330BC002C
:1005DE003830BD0081200330FC009730FD00FD0B4C
:1005EE00F62AFC0BF62A000000000130BB00043096
:1005FE00BC003430BD0081200330FC009730FD007C
:10060E00FD0B072BFC0B072B000000000130BB007D
:10061E000530BC003630BD0081200330FC00973021
:10062E00FD00FD0B182BFC0B182B000000000130F9
:10063E00BB000630BC004430BD0081200330FC00FE
:10064E009730FD00FD0B292BFC0B292B0000000021
:10065E000130BB000730BC004630BD0081200330A6
:10066E00FC009730FD00FD0B3A2BFC0B3A2B0000E3
:10067E0000000130BB000830BC004230BD008120BC
:10068E000330FC009730FD00FD0B4B2BFC0B4B2B6E
:10069E00000000000130BB000930BC003E30BD0040
:1006AE0081200330FC009730FD00FD0B5C2BFC0B12
:1006BE005C2B000000000130BB000A30BC00403053
:1006CE00BD0081200330FC009730FD00FD0B6D2B2B
:1006DE00FC0B6D2B000000000130BB000B30BC008A
:1006EE002630BD0081200330FC009730FD00FD0B4D
:1006FE007E2BFC0B7E2B000000000130BB000C306B
:10070E00BC002830BD0081200330FC009730FD0076
:10071E00FD0B8F2BFC0B8F2B000000000130BB005C
:10072E000D30BC002430BD0081200330FC0097301A
:10073E00FD00FD0BA02BFC0BA02B000000000130D8
:10074E00BB000E30BC002030BD0081200330FC0009
:10075E009730FD00FD0BB12BFC0BB12B0000000000
:02076E00080081
:1007700083160313871107110712871207138713B4
:1007800083128711071187130713871207120D2091
:100790000D200D20871607168715032087110D20C1
:1007A0008715032087110D208715032087110D2041
:1007B00007128715032087110D2087150320871145
:1007C000871287178715032087110D2087130716B7
:1007D00087150320871107128715032087110D2025
:1007E00087150320871107168715032087110D2011
:1007F0000712871503208711871707178716071613
:0E0800008715032087110D208316321408007F
:10080E00043083160313BB000930BC002230BD0038
:10081E0081200330FC009730FD00FD0B142CFC0BE7
:10082E00142C000000000430BB000A30BC00303035
:10083E00BD0081200330FC009730FD00FD0B252C00
:10084E00FC0B252C000000000430BB000B30BC005C
:10085E003230BD0081200330FC009730FD00FD0BCF
:10086E00362CFC0B362C000000000430BB000C3084
:10087E00BC002E30BD0081200330FC009730FD00FF
:10088E00FD0B472CFC0B472C000000000430BB0076
:10089E000D30BC002A30BD0081200330FC009730A3
:1008AE00FD00FD0B582CFC0B582C000000000430F2
:1008BE00BB000E30BC002C30BD0081200330FC008C
:1008CE009730FD00FD0B692CFC0B692C000000001D
:1008DE000430BB000F30BC004830BD008120033017
:1008EE00FC009730FD00FD0B7A2CFC0B7A2C0000DF
:1008FE0000000430BB001030BC006230BD0081200F
:10090E000330FC009730FD00FD0B8B2CFC0B8B2C69
:10091E00000000000430BB001130BC006430BD008C
:10092E0081200330FC009730FD00FD0B9C2CFC0B4E
:10093E009C2C000000000430BB001230BC00603064
:10094E00BD0081200330FC009730FD00FD0BAD2C67
:10095E00FC0BAD2C000000000430BB001330BC00BB
:10096E005C30BD0081200330FC009730FD00FD0B94
:0C097E00BE2CFC0BBE2C0000000008008A
:10098A00D7208A110A128000840AB30A0319B40A0A
:08099A00F003031DC52C080049
:1009A2007225013083160313B5000030B600FF3004
:1009B200850080309F00B823C72207240922013016
:1009C200C0001A2007243508B7003608B800DE2018
:1009D2000630FB001330FC00AD30FD00FD0BEF2CA8
:1009E200FC0BEF2CFB0BEF2C00000000B50A0319E7
:1009F200B60A8030F000803036067002031D032DE7
:100A02003508143C0318092D0130B5000030B6003A
:040A1200E42C0A2D99
:100AE40020308400503083120313F000103083163A
:100AF400B3000530B400C524A03084001230831242
:100B0400F00060308316B3000530B400C52408003B
:040A20006D340034FD
:040A24002D34003439
:040A28006134003401
:040A2C0067340034F7
:040A300072340034E8
:040A34004B3400340B
:040A380069340034E9
:040A3C00203400342E
:040A40004234003408
:040A440079340034CD
:040A48006F340034D3
:040A4C0063340034DB
:040A500068340034D2
:040A540045340034F1
:040A580063340034CF
:040A5C0069340034C5
:040A60006F340034BB
:040A640064340034C2
:040A680061340034C1
:040A6C0072340034AC
:040A70006E340034AC
:040A740069340034AD
:040A78006F340034A3
:040A7C0064340034AA
:040A800061340034A9
:040A84007234003494
:040A88006D34003495
:040A8C00613400349D
:040A90006734003493
:040A94007234003484
:040A98007034003482
:040A9C0020340034CE
:040AA000703400347A
:040AA400673400347F
:040AA800733400346F
:040AAC006F3400346F
:040AB0006334003477
:040AB400683400346E
:040AB800453400348D
:040ABC00633400346B
:040AC00020340034AA
:040AC4006E34003458
:040AC8006934003459
:040ACC00643400345A
:040AD0002E3400348C
:040AD400673400344F
:040AD8004C34003466
:040ADC00613400344D
:040AE0006F3400343B
:02400E004A2F37
:00000001FF
