:02000000F62EDA
:0C000600000000000000000000000800E6
:10001200243083120313FC00B530FD00FD0B0F28C2
:0A002200FC0B0F280000000008008E
:0E002C00533083120313FD00FD0B1A28080049
:10003A0083160313DE1B24288312871326288312B0
:10004A00871783165E1B2C28831207132E28831208
:10005A0007178316DE1A342883128712362883126A
:10006A00871683165E1A3C28831207123E288312CB
:10007A0007166F184228071543280711871503200A
:10008A0087118316DE194C28831287134E28831290
:10009A00871783165E19542883120713562883126A
:1000AA0007178316DE185C28831287125E288312CC
:1000BA00871683165E18642883120712662883122D
:1000CA0007166F186A2807156B280711871503206A
:0E00DA0087116F1C7228092073281620080059
:1000E800710DF80DF90D7408F8027508031C750FE9
:1000F800F902F00DF10D0F30FC00710DF80DF90D3E
:100108007408701C8D28F8027508031C750FF90215
:100118009228F80775080318750FF907F00DF10D07
:10012800FC0B812870189E287408F80775080318B6
:08013800750FF9070000080033
:10014000831203136F1083165D08DE001D206F14E9
:020150000800A5
:10015200831203137408003A031DB8287508003A85
:10016200031DB828FF30F0007F30F10011298312FF
:100172000313FD01F901F801710870040319003439
:1001820071087506FA00FA1BFD09FB01F51FCE285E
:10019200F409F509F40A0319F50AF11FD528F00943
:1001A200F109F00A0319F10A71087504FA00FA1B41
:1001B200EA2874207B18FD28FD1F0034F009F1099C
:1001C200F00A0319F10AF809F909F80A0319F90AF8
:1001D2000034F51FF928F11BF5287108F9007008A1
:1001E200F800F101F001DD28F101F001F00A00341C
:1001F200F109F009FB0ADA28F80A0319F90A740866
:100202007802031DDD2875087902031DDD28F90136
:10021200F801F00A0319F10AF11FDD280000FF348A
:020222000800D2
:100224002429803083160313D9003729C030D9001C
:1002340037299430D9003729D430D9003729803070
:10024400D9003729831603135908013A03191329CE
:100254005908023A031918295908033A03191B29A2
:100264005908043A03191E2921295A03F000590890
:10027400F0077008D90083126F1470088316DE002B
:100284001D206F1083165B08DE001D206F1408000C
:0E0294008316031352088A00510882000800E6
:1002A2006329803083160313D9007629C030D90020
:1002B20076299430D9007629D430D9007629803035
:1002C200D9007629831603135908013A03195229D2
:1002D2005908023A031957295908033A03195A29A6
:1002E2005908043A03195D2960295A03F000590894
:1002F200F0077008D9007008DE001D206F10831609
:10030200DC015C085B0784000008031991295C0882
:100312005B0784000008DD00A0208316DC0A822926
:0603220083126F140800B5
:10032800803083120313F000803083165A0670025F
:10033800031DA0295908143C0318A429D901DA017E
:0A0348005908F0005A08F1000800FF
:10035200243083120313FD00FD0BAD2900000800B9
:100362000C3083160313DE001D2001308316D700E4
:100372000030D80080305806F00080307002031D33
:10038200C429153057020318D2290130D900570861
:10039200DA002830DB0051218316D70A0319D80A64
:1003A200BB290130D9005508DA002430DB00512185
:1003B2008316D50A0319D60A5508D9005608DA0059
:1003C20094217008D5007108D6000130D900700858
:1003D200DA002030DB0051218316D50A0319D60A30
:1003E2005508D9005608DA0094217008D500710822
:1003F200D6000130D9007008DA002230DB0051212A
:100402008316D50A0319D60A5508D9005608DA0008
:1004120094217008D5007108D6000130D900700807
:10042200DA002A30DB0051218316D50A0319D60AD5
:100432005508D9005608DA0094217008D5007108D1
:10044200D6000130D9007008DA003230DB005121C9
:100452008316D50A0319D60A5508D9005608DA00B8
:1004620094217008D5007108D6000130D9007008B7
:10047200DA003430DB0051218316D50A0319D60A7B
:100482005508D9005608DA0094217008D500710881
:10049200D6000130D9007008DA003030DB0051217B
:1004A2008316D50A0319D60A5508D9005608DA0068
:1004B20094217008D5007108D6000130D900700867
:1004C200DA002C30DB0051218316D50A0319D60A33
:1004D2005508D9005608DA0094217008D500710831
:1004E200D6000130D9007008DA002E30DB0051212D
:1004F2008316D50A0319D60A5508D9005608DA0018
:1005020094217008D5007108D6000130D900700816
:10051200DA004C30DB0051218316D50A0319D60AC2
:100522005508D9005608DA0094217008D5007108E0
:10053200D6000130D9007008DA006930DB005121A1
:100542008316D50A0319D60A5508D9005608DA00C7
:1005520094217008D5007108D6000130D9007008C6
:10056200DA006B30DB0051218316D50A0319D60A53
:100572005508D9005608DA0094217008D500710890
:10058200D6000130D9007008DA006730DB00512153
:100592008316D50A0319D60A5508D9005608DA0077
:1005A20094217008D5007108D6000130D900700876
:1005B200DA006030DB0051218316D50A0319D60A0E
:1005C2005508D9005608DA0094217008D500710840
:0405D200D600080047
:1005D600623083160313D7005708D800E830F400BA
:1005E6000330F5005508F0005608F100A920303018
:1005F600F00783165808840070088000570AD80050
:100606006430F4000030F5005508F0005608F1009B
:10061600A9200A30F4000030F500A9207808F0007F
:100626007908F1003030F007831658088400700806
:10063600800003305707D8000A30F4000030F50078
:100646005508F0005608F100A9200A30F4000030E1
:10065600F500A9207808F0007908F1003030F0079D
:10066600831658088400700880000330D9000530CE
:10067600DA005708DB00512103308316D900093010
:0A068600DA005630DB0012210800F4
:10069000043083160313D9000930DA003C30DB0044
:1006A00051210730FC007D30FD00FD0B552BFC0B6C
:1006B000552B04308316D9000A30DA003830DB00BD
:1006C00051210730FC007D30FD00FD0B652BFC0B3C
:1006D000652B04308316D9000B30DA003A30DB008A
:1006E00051210730FC007D30FD00FD0B752BFC0B0C
:1006F000752B04308316D9000C30DA004030DB0053
:1007000051210730FC007D30FD00FD0B852BFC0BDB
:10071000852B04308316D9000D30DA004830DB0019
:1007200051210730FC007D30FD00FD0B952BFC0BAB
:10073000952B04308316D9000E30DA004A30DB00E6
:1007400051210730FC007D30FD00FD0BA52BFC0B7B
:10075000A52B04308316D9000F30DA004630DB00B9
:1007600051210730FC007D30FD00FD0BB52BFC0B4B
:10077000B52B04308316D9001030DA004230DB008C
:1007800051210730FC007D30FD00FD0BC52BFC0B1B
:10079000C52B04308316D9001130DA004430DB0059
:1007A00051210730FC007D30FD00FD0BD52BFC0BEB
:1007B000D52B04308316D9001230DA003630DB0036
:1007C00051210730FC007D30FD00FD0BE52BFC0BBB
:1007D000E52B04308316D9001330DA002630DB0015
:1007E00051210730FC007D30FD00FD0BF52BFC0B8B
:0407F000F52B0800DD
:1007F4000C3083160313DE001D2002308316D9004B
:100804000130DA00AF30DB0051210730FC007D30CD
:10081400FD00FD0B0B2CFC0B0B2C02308316D900B6
:100824000230DA00C330DB0051210730FC007D3098
:10083400FD00FD0B1B2CFC0B1B2C02308316D90076
:100844000330DA00C130DB0051210730FC007D3079
:10085400FD00FD0B2B2CFC0B2B2C02308316D90036
:100864000430DA00C530DB0051210730FC007D3054
:10087400FD00FD0B3B2CFC0B3B2C03308316D900F5
:100884000130DA00CB30DB0051210730FC007D3031
:10089400FD00FD0B4B2CFC0B4B2C03308316D900B5
:1008A4000230DA00C730DB0051210730FC007D3014
:1008B400FD00FD0B5B2CFC0B5B2C03308316D90075
:1008C4000330DA00C930DB0051210730FC007D30F1
:1008D400FD00FD0B6B2CFC0B6B2C03308316D90035
:1008E4000430DA00B530DB0051210730FC007D30E4
:0C08F400FD00FD0B7B2CFC0B7B2C080096
:10090000023083160313D9000130DA00B730DB0060
:1009100051210730FC007D30FD00FD0B8D2CFC0BC0
:100920008D2C02308316D9000230DA00B130DB00A2
:1009300051210730FC007D30FD00FD0B9D2CFC0B90
:100940009D2C02308316D9000330DA00B330DB006F
:1009500051210730FC007D30FD00FD0BAD2CFC0B60
:10096000AD2C02308316D9000430DA00BD30DB0034
:1009700051210730FC007D30FD00FD0BBD2CFC0B30
:10098000BD2C02308316D9000530DA00BF30DB0001
:1009900051210730FC007D30FD00FD0BCD2CFC0B00
:1009A000CD2C02308316D9000630DA00B930DB00D6
:1009B00051210730FC007D30FD00FD0BDD2CFC0BD0
:1009C000DD2C02308316D9000730DA00BB30DB00A3
:1009D00051210730FC007D30FD00FD0BED2CFC0BA0
:1009E000ED2C8316D501D60180305606F0008030FC
:1009F0007002031DFD2C033055020318382D0830FA
:100A0000D7000030D80080305806F00080307002E7
:100A1000031D0C2D0B3057020318342D0C30DE0053
:100A20001D2002308316D9005708DA00AD30DB00F4
:100A300051211430FB000730FC001130FD00FD0B8C
:100A40001F2DFC0B1F2DFB0B1F2D00000000023083
:100A50008316D9005708DA003E30DB005121831697
:100A6000D70A0319D80A032DD50A0319D60AF42C7C
:020A700008007C
:100A7200013083160313D9000130DA00A930DB00FC
:100A820051210730FC007D30FD00FD0B462DFC0B93
:100A9200462D01308316D9000230DA00AB30DB007C
:100AA20051210730FC007D30FD00FD0B562DFC0B63
:100AB200562D01308316D9000330DA00A730DB004F
:100AC20051210730FC007D30FD00FD0B662DFC0B33
:100AD200662D01308316D9000430DA006D30DB0058
:100AE20051210730FC007D30FD00FD0B762DFC0B03
:100AF200762D01308316D9000530DA00A530DB00EF
:100B020051210730FC007D30FD00FD0B862DFC0BD2
:100B1200862D01308316D9000630DA005E30DB0004
:100B220051210730FC007D30FD00FD0B962DFC0BA2
:100B3200962D01308316D9000730DA005430DB00DD
:100B420051210730FC007D30FD00FD0BA62DFC0B72
:100B5200A62D01308316D9000830DA005630DB00AA
:100B620051210730FC007D30FD00FD0BB62DFC0B42
:100B7200B62D01308316D9000930DA005230DB007D
:100B820051210730FC007D30FD00FD0BC62DFC0B12
:100B9200C62D01308316D9000A30DA004E30DB0050
:100BA20051210730FC007D30FD00FD0BD62DFC0BE2
:100BB200D62D01308316D9000B30DA005030DB001D
:100BC20051210730FC007D30FD00FD0BE62DFC0BB2
:100BD200E62D01308316D9000C30DA005830DB00E4
:100BE20051210730FC007D30FD00FD0BF62DFC0B82
:100BF200F62D01308316D9000D30DA005A30DB00B1
:100C020051210730FC007D30FD00FD0B062EFC0B50
:100C1200062E01308316D9000E30DA005C30DB007C
:100C220051210730FC007D30FD00FD0B162EFC0B20
:040C3200162E080072
:100C36004A218A110A128000840AD10A0319D20AAB
:080C4600F003031D1B2E080042
:100C4E0083160313871107110712871207138713D1
:100C5E0083128711071187130713871207120920B2
:100C6E0009200920871607168715032087110920EA
:100C7E008715032087110920871503208711092066
:100C8E000712871503208711092087150320871166
:100C9E0087128717871503208711092087130716D8
:100CAE008715032087110712871503208711092046
:100CBE008715032087110716871503208711092032
:100CCE000712871503208711871707178716071630
:0C0CDE0087150320871109206F140800FF
:100CEA00A03083160313D7005708D800E830F40061
:100CFA000330F5005508F0005608F100A9203030FD
:100D0A00F00783165808840070088000570AD80034
:100D1A006430F4000030F5005508F0005608F10080
:100D2A00A9200A30F4000030F500A9207808F00064
:100D3A007908F1003030F0078316580884007008EB
:100D4A00800003305707D8000A30F4000030F5005D
:100D5A005508F0005608F100A9200A30F4000030C6
:100D6A00F500A9207808F0007908F1003030F00782
:100D7A00831658088400700880000230D9000530B4
:100D8A00DA005708DB00512102308316D9000930F6
:0A0D9A00DA005630DB0012210800D9
:100DA400831203139F01C0309F0483161F179F17DC
:100DB4005508F000F00D7010F00D7010F00D70106B
:100DC400700883129F041F14A9211F151F1DEC2EE8
:100DD4000000E82E1F101E08F100F00183161E0803
:080DE400F0040030F1040800E6
:100DEC008A1500208A11013083160313D3000030BA
:100DFC00D40087010C308500883083129F00272691
:100E0C003925482380240130DE001D204823FA2395
:100E1C0083165308D5005408D600B1210230D500F2
:100E2C00D2267008CF007108D0000330D500D2262E
:100E3C007008CD007108CE004F08D5005008D600C0
:100E4C00D60CD50CD613561BD617752683164D0803
:100E5C00D5004E08D600D60CD50CD613561BD6177B
:100E6C00EB220D30FB00AF30FC00B630FD00FD0B6B
:100E7C003D2FFC0B3D2FFB0B3D2F00008316D30A9F
:100E8C000319D40A8030F000803054067002031D20
:100E9C00512F5308143C0318572F0130D300003046
:060EAC00D4000E2F582FA8
:10100000203084004D3083120313F0005C308316CF
:10101000D1000730D2008A111B268A15A030840027
:10102000053083120313F000D1308316D10007304E
:10103000D2008A111B268A156D308400023083127B
:101040000313F000D6308316D1000730D2008A1186
:101050001B268A15A5308400283083120313F00064
:10106000A9308316D1000730D2008A111B268A15B9
:02107000080076
:040EB800633400346B
:040EBC006834003462
:040EC0004534003481
:040EC4007034003452
:040EC800203400349E
:040ECC006F3400344B
:040ED0006434003452
:040ED4006934003449
:040ED800723400343C
:040EDC006334003447
:040EE0006134003445
:040EE4007034003432
:040EE800423400345C
:040EEC007934003421
:040EF0002D34003469
:040EF4002034003472
:040EF800203400346E
:040EFC006734003423
:040F00007334003412
:040F04006E34003413
:040F08004B34003432
:040F0C006934003410
:040F10006F34003406
:040F14006F34003402
:040F18006734003406
:040F1C006934003400
:040F200072340034F3
:040F240064340034FD
:040F280072340034EB
:040F2C0061340034F8
:040F30006D340034E8
:040F340061340034F0
:040F38006D340034E0
:0A0F3C00303430342E3430340034E9
:040F460061340034DE
:040F4A0067340034D4
:040F4E0072340034C5
:040F520063340034D0
:040F560068340034C7
:040F5A0045340034E6
:040F5E0063340034C4
:040F62002E340034F5
:040F660045340034DA
:040F6A006F340034AC
:040F6E0061340034B6
:040F72003A340034D9
:040F76004C340034C3
:040F7A006E3400349D
:040F7E0067340034A0
:040F8200643400349F
:040F86006934003496
:040F8A0047340034B4
:040F8E0043340034B4
:040F92003A340034B9
:040F9600503400349F
:040F9A0047340034A4
:040F9E005034003497
:0A0FA200303430342E343034003483
:040FAC006F3400346A
:02400E004A2F37
:00000001FF
