:02000000602D71
:06000600000000000800EC
:0E000C00213083120313FD00FD0B0A280800AB
:10001A000F3083120313FC004730FD00FD0B132839
:0A002A00FC0B132800000000080082
:1000340083160313D01B21288312871323288312CA
:1000440087178316501B2928831207132B28831222
:1000540007178316D01A3128831287123328831284
:1000640087168316501A3928831207123B288312E5
:100074000716831642184128831207154328831252
:1000840007118715032087118316D0194C28831272
:1000940087134E2883128717831650195428831206
:1000A40007135628831207178316D0185C28831267
:1000B40087125E28831287168316501864288312C9
:1000C4000712662883120716831642186C288312B7
:1000D40007156E28831207118715032087118316CD
:0C00E400421C76280D207728062008001A
:1000F0008316031342104F08D0001A2083164214AF
:020100000800F5
:100102009328803083160313CB00A628C030CB007F
:10011200A6289430CB00A628D430CB00A628803065
:10012200CB00A628831603134B08013A0319822831
:100132004B08023A031987284B08033A03198A2805
:100142004B08043A03198D2890284C03F0004B0801
:10015200F0077008CB007008D0001A2083164210F6
:10016200CE014E084D07840000080319C0284E082E
:100172004D0784000008CF007820CE0AB22842142E
:02018200080073
:0E0184008316031344088A0043088200080013
:10019200803083120313F000803083164C06700205
:1001A200031DD5284B08143C0318D928CB01CC01D8
:0A01B2004B08F0004C08F1000800B3
:1001BC000C3083160313D0001A2001308316C900AB
:1001CC000030CA0080304A06F00080307002031DF7
:1001DC00F128153049020318FE280130CB004908DC
:1001EC00CC00A230CD008120C90A0319CA0AE82824
:1001FC000130CB004708CC00A430CD008120C70AC9
:10020C000319C80A4708CB004808CC00C92070085D
:10021C00C7007108C8000130CB007008CC00A030BA
:10022C00CD008120C70A0319C80A4708CB0048082B
:10023C00CC00C9207008C7007108C8000130CB0081
:10024C007008CC006C30CD008120C70A0319C80A95
:10025C004708CB004808CC00C9207008C7007108BB
:10026C00C8000130CB007008CC006E30CD0081206E
:10027C00C70A0319C80A4708CB004808CC00C92094
:10028C007008C7007108C8000130CB007008CC00A2
:10029C005230CD008120C70A0319C80A4708CB0089
:1002AC004808CC00C9207008C7007108C80001308C
:1002BC00CB007008CC005430CD008120C70A031944
:1002CC00C80A4708CB004808CC00C9207008C700F2
:1002DC007108C8000130CB007008CC005030CD0044
:1002EC008120C70A0319C80A4708CB004808CC006C
:1002FC00C9207008C7007108C8000130CB00700815
:10030C00CC004C30CD008120C70A0319C80A47081D
:10031C00CB004808CC00C9207008C7007108C80081
:10032C000130CB007008CC004E30CD008120C70AC4
:10033C000319C80A4708CB004808CC00C92070082C
:10034C00C7007108C8000130CB007008CC005630D3
:10035C00CD008120C70A0319C80A4708CB004808FA
:10036C00CC00C9207008C7007108C8000130CB0050
:10037C007008CC005C30CD008120C70A0319C80A74
:10038C004708CB004808CC00C9207008C70071088A
:10039C00C8000130CB007008CC005E30CD0081204D
:1003AC00C70A0319C80A4708CB004808CC00C92063
:1003BC007008C7007108C8000130CB007008CC0071
:1003CC005A30CD008120C70A0319C80A4708CB0050
:1003DC004808CC00C9207008C7007108C80001305B
:1003EC00CB007008CC005830CD008120C70A03190F
:1003FC00C80A4708CB004808CC00C9207008C700C1
:06040C007108C8000800A1
:100412000C3083160313D0001A2002308316CB004F
:100422000130CC002E30CD0081200330FC0097300B
:10043200FD00FD0B1A2AFC0B1A2A000000000230F4
:10044200CB000230CC004A30CD0081200330FC00CA
:100452009730FD00FD0B2B2AFC0B2B2A000000001D
:100462000230CB000330CC006630CD008120033057
:10047200FC009730FD00FD0B3C2AFC0B3C2A0000DF
:1004820000000230CB000430CC006830CD00812067
:100492000330FC009730FD00FD0B4D2AFC0B4D2A6A
:1004A200000000000330CB000130CC006430CD00EE
:1004B20081200330FC009730FD00FD0B5E2AFC0B0F
:1004C2005E2A000000000330CB000230CC00603016
:1004D200CD0081200330FC009730FD00FD0B6F2A18
:1004E200FC0B6F2A000000000330CB000330CC006D
:1004F2006230CD0081200330FC009730FD00FD0BFF
:10050200802AFC0B802A000000000330CB0004305C
:10051200CC006A30CD0081200330FC009730FD0012
:0E052200FD0B912AFC0B912A0000000008003E
:10053000023083160313CB000130CC003C30CD00D9
:1005400081200330FC009730FD00FD0BA52AFC0B39
:10055000A52A000000000230CB000230CC003E3063
:10056000CD0081200330FC009730FD00FD0BB62A42
:10057000FC0BB62A000000000230CB000330CC0098
:100580003A30CD0081200330FC009730FD00FD0B98
:10059000C72AFC0BC72A000000000230CB00043041
:1005A000CC003630CD0081200330FC009730FD00B8
:1005B000FD0BD82AFC0BD82A000000000230CB002B
:1005C0000530CC003830CD0081200330FC0097305E
:1005D000FD00FD0BE92AFC0BE92A000000000230B7
:1005E000CB000630CC004030CD0081200330FC0031
:1005F0009730FD00FD0BFA2AFC0BFA2A00000000E0
:100600000230CB000730CC004630CD0081200330D3
:10061000FC009730FD00FD0B0B2BFC0B0B2B00009F
:100620000000C701C80180304806F0008030700229
:10063000031D1C2B033047020318552B0830C9003B
:100640000030CA0080304A06F00080307002031D7E
:100650002B2B0B3049020318512B0C30D0001A20E1
:1006600002308316CB004908CC004830CD008120F1
:100670000830FB009D30FC000530FD00FD0B3E2BDB
:10068000FC0B3E2BFB0B3E2B000000000230CB008E
:100690004908CC004230CD008120C90A0319CA0A9A
:0C06A000222BC70A0319C80A132B0800FC
:1006AC00013083160313CB000130CC00A830CD00F1
:1006BC0081200330FC009730FD00FD0B632BFC0BFD
:1006CC00632B000000000130CB000230CC00BA30AC
:1006DC00CD0081200330FC009730FD00FD0B742B06
:1006EC00FC0B742B000000000130CB000330CC005D
:1006FC00C030CD0081200330FC009730FD00FD0B95
:10070C00852BFC0B852B000000000130CB00043046
:10071C00CC00BE30CD0081200330FC009730FD00B2
:10072C00FD0B962BFC0B962B000000000130CB0030
:10073C000530CC00BC30CD0081200330FC0097305C
:10074C00FD00FD0BA72BFC0BA72B000000000130BC
:10075C00CB000630CC00B830CD0081200330FC003B
:10076C009730FD00FD0BB82BFC0BB82B00000000E4
:10077C000130CB000730CC00AE30CD0081200330EF
:10078C00FC009730FD00FD0BC92BFC0BC92B0000A6
:10079C0000000130CB000830CC00AC30CD00812003
:1007AC000330FC009730FD00FD0BDA2BFC0BDA2B31
:1007BC00000000000130CB000930CC00AA30CD0085
:1007CC0081200330FC009730FD00FD0BEB2BFC0B64
:1007DC00EB2B000000000130CB000A30CC00B03015
:1007EC00CD0081200330FC009730FD00FD0BFC2B6D
:1007FC00FC0BFC2B000000000130CB000B30CC00BC
:10080C00B630CD0081200330FC009730FD00FD0B8D
:10081C000D2CFC0B0D2C000000000130CB000C301B
:10082C00CC00B430CD0081200330FC009730FD00AB
:10083C00FD0B1E2CFC0B1E2C000000000130CB000D
:10084C000D30CC00B230CD0081200330FC0097304D
:10085C00FD00FD0B2F2CFC0B2F2C00000000013099
:10086C00CB000E30CC00A630CD0081200330FC0034
:10087C009730FD00FD0B402CFC0B402C00000000C1
:02088C00080062
:10088E008316031387110711071287120713871395
:10089E0083128711071187130713871207120D2072
:1008AE000D200D20871607168715032087110D20A2
:1008BE008715032087110D208715032087110D2022
:1008CE0007128715032087110D2087150320871126
:1008DE00871287178715032087110D208713071698
:1008EE0087150320871107128715032087110D2006
:1008FE0087150320871107168715032087110D20F2
:10090E0007128715032087118717071787160716F3
:0E091E008715032087110D2083164214080050
:10092C00043083160313CB000930CC004430CD00C7
:10093C0081200330FC009730FD00FD0BA32CFC0B39
:10094C00A32C000000000430CB000A30CC00263071
:10095C00CD0081200330FC009730FD00FD0BB42C42
:10096C00FC0BB42C000000000430CB000B30CC008E
:10097C002830CD0081200330FC009730FD00FD0BAA
:10098C00C52CFC0BC52C000000000430CB000C3037
:10099C00CC002430CD0081200330FC009730FD00CA
:1009AC00FD0BD62CFC0BD62C000000000430CB0029
:1009BC000D30CC002030CD0081200330FC0097306E
:1009CC00FD00FD0BE72CFC0BE72C000000000430B5
:1009DC00CB000E30CC002230CD0081200330FC0047
:1009EC009730FD00FD0BF82CFC0BF82C00000000E0
:1009FC000430CB000F30CC002A30CD0081200330E6
:100A0C00FC009730FD00FD0B092DFC0B092D00009F
:100A1C0000000430CB001030CC003230CD008120EF
:100A2C000330FC009730FD00FD0B1A2DFC0B1A2D2A
:100A3C00000000000430CB001130CC003430CD006D
:100A4C0081200330FC009730FD00FD0B2B2DFC0B9F
:100A5C002B2D000000000430CB001230CC003030C5
:100A6C00CD0081200330FC009730FD00FD0B3C2DA8
:100A7C00FC0B3C2D000000000430CB001330CC00EC
:100A8C002C30CD0081200330FC009730FD00FD0B95
:0C0A9C004D2DFC0B4D2D0000000008004B
:100AA800C2208A110A128000840AC30A0319C40AE0
:080AB800F003031D542D08009A
:100AC0001226013083160313C5000030C600FF3024
:100AD000850080309F0047245623962498220130B9
:100AE000D0001A20962409224508C7004608C800ED
:100AF000DE200630FB001330FC00AD30FD00FD0BA6
:100B00007F2DFC0B7F2DFB0B7F2D00000000C50A05
:100B10000319C60A8030F000803046067002031DBB
:100B2000932D4508143C0318992D0130C500003061
:060B3000C600742D9A2D91
:100C240020308400503083120313F000A030831668
:100C3400C3000530C4005425A03084002230F000E5
:0E0C4400F0308316C3000530C40054250800AC
:040B40004B340034FE
:040B440069340034DC
:040B48002034003421
:040B4C0042340034FB
:040B500079340034C0
:040B54006E340034C7
:040B580070340034C1
:040B5C0045340034E8
:040B600070340034B9
:040B640067340034BE
:040B680073340034AE
:040B6C0064340034B9
:040B700069340034B0
:040B740061340034B4
:040B78004C340034C5
:040B7C006F3400349E
:040B80006E3400349B
:040B840020340034E5
:040B88002D340034D4
:040B8C006734003496
:040B90002E340034CB
:040B940043340034B2
:040B9800643400348D
:040B9C006934003484
:040BA0007234003477
:040BA4006334003482
:040BA8006134003480
:040BAC006F3400346E
:040BB0006D3400346C
:040BB4006134003474
:040BB800673400346A
:040BBC00723400345B
:040BC0005034003479
:040BC400473400347E
:040BC8005034003471
:040BCC004734003476
:040BD0003A3400347F
:040BD4003A3400347B
:040BD8006834003449
:040BDC006F3400343E
:040BE0006334003446
:040BE4002034003485
:040BE800453400345C
:040BEC006D34003430
:040BF0004534003454
:040BF400693400342C
:040BF800643400342D
:040BFC00723400341B
:040C00006F34003419
:040C04006134003423
:040C0800723400340E
:040C0C006734003415
:040C10006134003417
:040C14006334003411
:040C1800633400340D
:040C1C006F340034FD
:040C20006834003400
:02400E004A2F37
:00000001FF
