:02000000892B4A
:0E000600213083120313FD00FD0B07280800B4
:06001400000000000800DE
:10001A000F3083120313FC004730FD00FD0B132839
:0A002A00FC0B132800000000080082
:1000340083160313A01B21288312871323288312FA
:1000440087178316201B2928831207132B28831252
:1000540007178316A01A31288312871233288312B4
:1000640087168316201A3928831207123B28831215
:10007400071664183F2807154028071187150A201A
:1000840087118316A0194928831287134B288312DA
:1000940087178316201951288312071353288312B4
:1000A40007178316A0185928831287125B28831216
:1000B4008716831620186128831207126328831277
:1000C40007166418672807156828071187150A207A
:0E00D4008711641C6F280D207028032008007F
:1000E2008312031364106F088316A0001A2064148D
:0200F200080004
:1000F4008C28803083120313EB009F28C030EB0060
:100104009F289430EB009F28D430EB009F28803048
:10011400EB009F28831203136B08013A03197B2811
:100124006B08023A031980286B08033A03198328E1
:100134006B08043A0319862889286C03F0006B08BD
:10014400F0077008EB0070088316A0001A206410F2
:10015400EE016E086D07840000080319B9286E08C3
:100164006D0784000008EF007120EE0AAB286414C8
:02017400080081
:0E0176008312031366088A00650882000800E1
:10018400043083120313EB000930EC006030ED00FF
:100194007A200330FC009730FD00FD0BCF28FC0BC8
:1001A400CF28000000000430EB000A30EC005A3085
:1001B400ED007A200330FC009730FD00FD0BE028B1
:1001C400FC0BE028000000000430EB000B30EC00D6
:1001D4005C30ED007A200330FC009730FD00FD0B0D
:1001E400F128FC0BF128000000000430EB000C3077
:1001F400EC005030ED007A200330FC009730FD0015
:10020400FD0B0229FC0B0229000000000430EB0066
:100214000D30EC004630ED007A200330FC009730BE
:10022400FD00FD0B1329FC0B132900000000043012
:10023400EB000E30EC004830ED007A200330FC0077
:100244009730FD00FD0B2429FC0B2429000000003D
:100254000430EB000F30EC004230ED007A20033024
:10026400FC009730FD00FD0B3529FC0B35290000FF
:1002740000000430EB001030EC004430ED007A2034
:100284000330FC009730FD00FD0B4629FC0B46298A
:10029400000000000430EB001130EC004C30ED00A5
:1002A4007A200330FC009730FD00FD0B5729FC0B2E
:1002B4005729000000000430EB001230EC004E30EF
:1002C400ED007A200330FC009730FD00FD0B682917
:1002D400FC0B6829000000000430EB001330EC0034
:1002E4004A30ED007A200330FC009730FD00FD0B0E
:0C02F4007929FC0B7929000000000800AB
:10030000013083120313EB000130EC003030ED00BC
:100310007A200330FC009730FD00FD0B8D29FC0B8B
:100320008D29000000000130EB000230EC00243089
:10033000ED007A200330FC009730FD00FD0B9E2974
:10034000FC0B9E29000000000130EB000330EC00A4
:100350002630ED007A200330FC009730FD00FD0BC5
:10036000AF29FC0BAF29000000000130EB00043086
:10037000EC002030ED007A200330FC009730FD00C7
:10038000FD0BC029FC0BC029000000000130EB0070
:100390000530EC002230ED007A200330FC0097306D
:1003A000FD00FD0BD129FC0BD1290000000001301C
:1003B000EB000630EC002C30ED007A200330FC001E
:1003C0009730FD00FD0BE229FC0BE2290000000044
:1003D0000130EB000730EC002E30ED007A200330C6
:1003E000FC009730FD00FD0BF329FC0BF329000006
:1003F00000000130EB000830EC002830ED007A20DE
:100400000330FC009730FD00FD0B042AFC0B042A8E
:10041000000000000130EB000930EC002A30ED0054
:100420007A200330FC009730FD00FD0B152AFC0BF1
:10043000152A000000000130EB000A30EC005630B5
:10044000ED007A200330FC009730FD00FD0B262ADA
:10045000FC0B262A000000000130EB000B30EC0002
:100460005830ED007A200330FC009730FD00FD0B82
:10047000372AFC0B372A000000000130EB000C305B
:10048000EC005230ED007A200330FC009730FD0084
:10049000FD0B482AFC0B482A000000000130EB004D
:1004A0000D30EC005430ED007A200330FC00973022
:1004B000FD00FD0B592AFC0B592A000000000130F9
:1004C000EB000E30EC005E30ED007A200330FC00D3
:1004D0009730FD00FD0B6A2AFC0B6A2A0000000021
:0204E000080012
:1004E200023083120313EB000130EC006230ED00A6
:1004F2007A200330FC009730FD00FD0B7E2AFC0BB6
:100502007E2A000000000230EB000230EC003630A0
:10051200ED007A200330FC009730FD00FD0B8F2A9E
:10052200FC0B8F2A000000000230EB000330EC00CD
:100532003830ED007A200330FC009730FD00FD0BCF
:10054200A02AFC0BA02A000000000230EB000430BD
:10055200EC003230ED007A200330FC009730FD00D1
:10056200FD0BB12AFC0BB12A000000000230EB00A7
:100572000530EC003430ED007A200330FC00973077
:10058200FD00FD0BC22AFC0BC22A00000000023053
:10059200EB000630EC003E30ED007A200330FC0028
:1005A2009730FD00FD0BD32AFC0BD32A000000007C
:1005B2000230EB000730EC004030ED007A200330CF
:1005C200FC009730FD00FD0BE42AFC0BE42A00003E
:1005D2000000E701E80180306806F0008030700218
:1005E200031DF52A0330670203182E2B0830E90099
:1005F2000030EA0080306A06F00080307002031D8D
:10060200042B0B30690203182A2B0C308316A0002E
:100612001A200230EB006908EC003A30ED007A2033
:100622000830FB009D30FC000530FD00FD0B172B50
:10063200FC0B172BFB0B172B000000000230EB000A
:100642006908EC003C30ED007A20E90A0319EA0A55
:0C065200FB2AE70A0319E80AEC2A08005A
:10065E0083160313871107110712871207138713C7
:10066E0083128711071187130713871207120D20A4
:10067E000D200D208716071687150A2087110D20CD
:10068E0087150A2087110D2087150A2087110D2046
:10069E00071287150A2087110D2087150A2087114A
:1006AE008712871787150A2087110D2087130716C3
:1006BE0087150A208711071287150A2087110D202A
:1006CE0087150A208711071687150A2087110D2016
:1006DE00071287150A20871187170717871607161F
:0C06EE0087150A2087110D2064140800F5
:1006FA00BB208A110A128000840AE50A0319E60A55
:08070A00F003031D7D2B080024
:10071200DE23FF3083160313850080309F002F23D2
:0807220080217122C220942BFA
:1007BC0020308400443083120313F0009A30E5009B
:0807CC000330E6007D23080064
:040734006F340034EA
:0407380063340034F2
:04073C0063340034EE
:0407400068340034E5
:0407440064340034E5
:0407480069340034DC
:04074C0061340034E0
:0407500072340034CB
:0407540045340034F4
:0407580064340034D1
:04075C0069340034C8
:040760006F340034BE
:0407640061340034C8
:040768002E340034F7
:04076C002034003401
:040770006E340034AF
:0407740067340034B2
:040778006E340034A7
:04077C0067340034AA
:040780004B340034C2
:0407840069340034A0
:040788007034003495
:04078C00733400348E
:04079000703400348D
:0407940020340034D9
:040798007234003483
:04079C006134003490
:0407A0006F3400347E
:0407A4006734003482
:0407A80042340034A3
:0407AC007934003468
:0407B0006D34003470
:0407B4002D340034AC
:0407B8004C34003489
:02400E004A2F37
:00000001FF
