:02000000F429E1
:0E000600213083120313FD00FD0B07280800B4
:100014000F3083120313FC004730FD00FD0B102842
:0A002400FC0B10280000000008008B
:06002E00000000000800C4
:1000340083120313C41B2028871321288717441B0A
:100044002528071326280717C41A2A2887122B28BD
:100054008716441A2F280712302807163E1834280A
:10006400071535280711871517208711C4193C284F
:1000740087133D2887174419412807134228071777
:10008400C418462887124728871644184B28071295
:100094004C2807163E1850280715512807118715B4
:1000A400172087113E1C58280A20592803200800CD
:1000B400831203133E104308C4001A203E140800A0
:0E00C400831203133D088A003C0882000800E6
:1000D2007B28803083120313BF008E28C030BF00FC
:1000E2008E289430BF008E28D430BF008E288030F6
:1000F200BF008E28831203133F08013A03196A28AE
:100102003F08023A03196F283F08033A031972287D
:100112003F08043A0319752878284003F0003F0885
:10012200F0077008BF007008C4001A203E10C20118
:1001320042084107840000080319A7284208410722
:1001420084000008C3005A20C20A99283E140800FD
:1001520083160313871107110712871207138713D8
:1001620083128711071187130713871207120A20B8
:100172000A200A20871607168715172087110A20DA
:100182008715172087110A208715172087110A2043
:1001920007128715172087110A2087151720871144
:1001A200871287178715172087110A2087130716CA
:1001B20087151720871107128715172087110A2024
:1001C20087151720871107168715172087110A2010
:1001D2000712871517208711871707178716071623
:0C01E2008715172087110A203E14080022
:1001EE00013083120313BF000130C0002230C10062
:1001FE0069200330FC009730FD00FD0B0429FC0B39
:10020E000429000000000130BF000230C000203081
:10021E00C10069200330FC009730FD00FD0B15294D
:10022E00FC0B1529000000000130BF000330C00098
:10023E002430C10069200330FC009730FD00FD0B17
:10024E002629FC0B2629000000000130BF000430D7
:10025E00C0003430C10069200330FC009730FD002F
:10026E00FD0B3729FC0B3729000000000130BF00C1
:10027E000530C0003230C10069200330FC009730D9
:10028E00FD00FD0B4829FC0B482900000000013041
:10029E00BF000630C0003630C10069200330FC00BC
:1002AE009730FD00FD0B5929FC0B59290000000069
:1002BE000130BF000730C0003A30C1006920033062
:1002CE00FC009730FD00FD0B6A29FC0B6A2900002B
:1002DE0000000130BF000830C0003830C100692076
:1002EE000330FC009730FD00FD0B7B29FC0B7B29B6
:1002FE00000000000130BF000930C0003030C100E6
:10030E0069200330FC009730FD00FD0B8C29FC0B9F
:10031E008C29000000000130BF000A30C0002830D8
:10032E00C10069200330FC009730FD00FD0B9D29B4
:10033E00FC0B9D29000000000130BF000B30C000F7
:10034E002630C10069200330FC009730FD00FD0B04
:10035E00AE29FC0BAE29000000000130BF000C30AE
:10036E00C0002A30C10069200330FC009730FD0028
:10037E00FD0BBF29FC0BBF29000000000130BF00A0
:10038E000D30C0002E30C10069200330FC009730C4
:10039E00FD00FD0BD029FC0BD02900000000013020
:1003AE00BF000E30C0002C30C10069200330FC00AD
:1003BE009730FD00FD0BE129FC0BE1290000000048
:0203CE00080025
:1003D00062208A110A128000840ABC0A0319BD0A2D
:0803E000F003031DE8290800E9
:1003E800633083120313A000A1014530A200A301CA
:1003F8006830A400A5016730A600A7016F30A800E7
:10040800A9017230AA00AB016D30AC00AD016130BA
:10041800AE00AF016930B000B1016330B200B30182
:100428006F30B400B5016130B600B7016430B80070
:10043800B9017230BA00BB01FF30831685008030E5
:080448009F00A920F720272ADC
:02400E004A2F37
:00000001FF
