:02000000642B6F
:020006000800F0
:10000800FF00030E8301EE000A08ED008A01700864
:10001800A0008B104608003A031D15280130C600C1
:100028001A284608013A031D1A28C6012008F000BC
:0E0038006D088A006E0E8300FF0E7F0E090019
:0C004600000000000000000000000800A6
:0E005200533083120313FD00FD0B2D28080010
:10006000243083120313FC00B530FD00FD0B36284D
:0A007000FC0B362800000000080019
:10007A0083160313B61B442883128612462883125A
:10008A0086168316361B4C28831206124E288312B4
:10009A0006168316B61A5428831286115628831216
:1000AA0086158316361A5C28831206115E28831277
:1000BA0006156C18622886176328861306172320EC
:1000CA0006138316B6196C28831286126E288312B9
:1000DA008616831636197428831206127628831216
:1000EA0006168316B6187C28831286117E28831278
:1000FA0086158316361884288312061186288312D9
:10010A0006156C188A2886178B288613061723204B
:0E011A0006136C1C9228302093282920080020
:10012800831203136C1083163508B6003D206C1437
:020138000800BD
:10013A00AF28803083160313B200C228C030B20041
:10014A00C2289430B200C228D430B200C22880300B
:10015A00B200C228831603133208013A03199E28F3
:10016A003208023A0319A3283208033A0319A628C7
:10017A003208043A0319A928AC283303F0003208DC
:10018A00F0077008B2007008B6003D206C10EF014D
:10019A006F0883163407840000080319DE288312C7
:1001AA006F088316340784000008B5009420EF0A0C
:0801BA00CD2883126C1408002B
:0E01C200831203136B088A006A08820008008B
:1001D000831603132808B2002A08B3003130B40094
:1001E0009D208316AA0A0319AB0A0730FC007D3054
:1001F000FD00FD0BF928FC0BF9282808B2002A089D
:10020000B3002F30B4009D208316AA0A0319AB0A4D
:100210000730FC007D30FD00FD0B0C29FC0B0C2988
:100220002808B2002A08B3002530B4009D208316A8
:10023000AA0A0319AB0A0730FC007D30FD00FD0B54
:100240001F29FC0B1F292808B2002A08B3002330FD
:10025000B4009D208316AA0A0319AB0A0730FC00DC
:100260007D30FD00FD0B3229FC0B32292808B2003D
:100270002A08B3002130B4009D208316AA0A03196E
:10028000AB0A0730FC007D30FD00FD0B4529FC0B5F
:1002900045292808B2002A08B3002730B4009D2061
:1002A0008316AA0A0319AB0A0730FC007D30FD0053
:1002B000FD0B5829FC0B58292808B2002A08B30066
:1002C0002D30B4009D208316AA0A0319AB0A07300B
:1002D000FC007D30FD00FD0B6B29FC0B6B29280811
:1002E000B2002A08B3002B30B4009D208316AA0A5E
:1002F0000319AB0A0730FC007D30FD00FD0B7E29A1
:10030000FC0B7E292808B2002A08B3002930B4006B
:100310009D208316AA0A0319AB0A0730FC007D3022
:10032000FD00FD0B9129FC0B91292808B2002A0839
:10033000B3003330B4009D208316AA0A0319AB0A18
:100340000730FC007D30FD00FD0BA429FC0BA42927
:100350002808B2002A08B3004C30B4009D20831650
:10036000AA0A0319AB0A0730FC007D30FD00FD0B23
:10037000B729FC0BB7292808B2002A08B3004A3075
:10038000B4009D208316AA0A0319AB0A0730FC00AB
:0E0390007D30FD00FD0BCA29FC0BCA290800B8
:10039E0083160313AA01AB0180302B06F0008030C8
:1003AE007002031DDC2915302A020318EA292808D9
:1003BE00B2002A08B3004430B4009D208316AA0A66
:0803CE000319AB0AD329080052
:1003D60083160313B001B10180303106F00080307E
:1003E6002F067002031DF9292E08300203183E2A33
:1003F6002808B2000A30B3005130B4009D200D30F9
:10040600FB00AF30FC00B630FD00FD0B082AFC0BEC
:10041600082AFB0B082A000083162808B2000A30B7
:10042600B3004F30B4009D200D30FB00AF30FC0010
:10043600B630FD00FD0B1D2AFC0B1D2AFB0B1D2AE9
:10044600000083162808B2000A30B3004730B40013
:100456009D200D30FB00AF30FC00B630FD00FD0BDB
:10046600322AFC0B322AFB0B322A00008316B00A12
:080476000319B10AEF29080087
:10047E004E2A353083120313BC000130BD0000300C
:10048E00BE00602A3F30BC00BD01BE01602A83124F
:10049E00031300303E06031D562A00303D06031995
:1004AE00402A00303E06031D5E2A01303D06031928
:1004BE00492A03308316A8000030A900CF2102304C
:1004CE00FB004530FC00A930FD00FD0B6C2AFC0B37
:1004DE006C2AFB0B6C2A000000000330B2000130C6
:1004EE00B300831253088316B4009D200230FB0024
:1004FE004530FC00A930FD00FD0B832AFC0B832A3E
:10050E00FB0B832A0000000003308316B200093073
:10051E00B30083123C088316B4009D200730FB0005
:10052E005830FC005930FD00FD0B9B2AFC0B9B2A1A
:0A053E00FB0B9B2A000000000800E0
:100548000C3083160313B6003D2002308316A80032
:100558000030A9000530AA000030AB00E8200230C6
:10056800FB004530FC00A930FD00FD0BB92AFC0B4F
:10057800B92AFB0BB92A000000000330A80000309C
:10058800A9000930AA000030AB000430AC000030EC
:10059800AD000330AE000030AF00EB210230FB00AD
:1005A8004530FC00A930FD00FD0BD82AFC0BD82AE9
:1005B800FB0BD82A000000000130B6003D200230B5
:1005C800FB004530FC00A930FD00FD0BE92AFC0BBF
:1005D800E92AFB0BE92A0000000001308316B2006B
:1005E8000130B300831249088316B4009D200230FD
:1005F800FB004530FC00A930FD00FD0B012BFC0B76
:10060800012BFB0B012B0000000002308316B20007
:100618000130B30083124E088316B4009D200230C7
:10062800FB004530FC00A930FD00FD0B192BFC0B2D
:10063800192BFB0B192B0000000003308316B200A6
:100648000130B300831253088316B4009D20023092
:10065800FB004530FC00A930FD00FD0B312BFC0BE5
:10066800312BFB0B312B0000000003308316B20046
:100678000130B300831253088316B4009D20023062
:10068800FB004530FC00A930FD00FD0B492BFC0B9D
:0C069800492BFB0B492B00000000080060
:0C06A4008316031301178B170B160800B8
:1006B000E1208A110A128000840AEA0A0319EB0A6F
:0806C000F003031D582B080094
:1006C800DC235223A4228316860183124608013AAA
:1006D800031D732B01308316B6003D20C601460862
:1006E800003A031D7A2BA4220130C600071F7D2B78
:1006F8003F22071B822B871B822B832B0320692B0E
:02070800842B40
:1007B80021308400493083120313F0008A30EA00A4
:1007C8000330EB005823A03084000830F000D33009
:0A07D800EA000330EB00582308008C
:040714006E3400340B
:040718006534003410
:04071C00473400342A
:04072000203400344D
:040724002E3400343B
:040728003334003432
:04072C0076340034EB
:0407300069340034F4
:040734005034003409
:040738003034003425
:0E073C005334713475346134723465340034D2
:02074A00653414
:04074C000034003441
:0A075000533469346E34653400340C
:04075A002034003413
:02075E00633402
:040760007C340034B1
:020764005F3400
:0407660030340034F7
:04076A002E340034F5
:02076E00543401
:040770002D340034F0
:040774002F340034EA
:02077800A034AB
:10077A004634723465347134753465346E34633496
:06078A0079343A3400341A
:0C07900050346934473465346E34003452
:0A079C00533469346E3465340034C0
:1007A6005334693467346E3461346C343A3400340B
:02400E004A2F37
:00000001FF
