:020000001D2BB6
:10000800FF00030E8301E2000A08E3008A018B1057
:100018000130CE0063088A00620E8300FF0E7F0E57
:020028000900CD
:0E002A00533083120313FD00FD0B192808004C
:0C003800000000000000000000000800B4
:10004400243083120313FC00B530FD00FD0B282877
:0A005400FC0B282800000000080043
:10005E0083160313A41B36288312871338288312A2
:10006E0087178316241B3E288312071340288312FA
:10007E0007178316A41A462883128712482883125C
:10008E0087168316241A4E288312071250288312BD
:10009E0007166418542807155528071187151C20B4
:1000AE0087118316A4195E28831287136028831282
:1000BE00871783162419662883120713682883125C
:1000CE0007178316A4186E288312871270288312BE
:1000DE00871683162418762883120712782883121F
:1000EE00071664187C2807157D28071187151C2014
:0E00FE008711641C8428222085281520080004
:10010C0083120313641083162308A4002F20641495
:02011C000800D9
:10011E00A128803083160313A000B428C030A0009D
:10012E00B4289430A000B428D430A000B428803075
:10013E00A000B428831603132008013A031990284F
:10014E002008023A031995282008033A0319982823
:10015E002008043A03199B289E282103F00020084A
:10016E00F0077008A0007008A4002F206410EF01A3
:10017E006F0883162207840000080319D028831203
:10018E006F088316220784000008A3008620EF0A5A
:08019E00BF288312641408005D
:1001A6008316031387110711071287120713871384
:1001B600831287110711871307138712071222204C
:1001C600222022208716071687151C208711222039
:1001D60087151C208711222087151C2087112220B5
:1001E600071287151C208711222087151C208711CE
:1001F6008712871787151C20871122208713071659
:1002060087151C208711071287151C2087112220AD
:1002160087151C208711071687151C208711222099
:10022600071287151C2087118717071787160716C9
:0C02360087151C2087112220641408008A
:100242008312031365088316A000831267088316BE
:10025200A1002130A2008F20E70A0319E80A073023
:10026200FC007D30FD00FD0B3429FC0B34296508B0
:100272008316A000831267088316A1003730A200FC
:100282008F20E70A0319E80A0730FC007D30FD00E1
:10029200FD0B4929FC0B492965088316A00083122E
:1002A20067088316A1003530A2008F20E70A0319E0
:1002B200E80A0730FC007D30FD00FD0B5E29FC0BD7
:1002C2005E2965088316A000831267088316A100C1
:1002D2003330A2008F20E70A0319E80A0730FC0036
:1002E2007D30FD00FD0B7329FC0B73296508831615
:1002F200A000831267088316A1003930A2008F2064
:10030200E70A0319E80A0730FC007D30FD00FD0B07
:100312008829FC0B882965088316A00083126708C8
:100322008316A1003F30A2008F20E70A0319E80AD2
:100332000730FC007D30FD00FD0B9D29FC0B9D2943
:1003420065088316A000831267088316A1003D305A
:10035200A2008F20E70A0319E80A0730FC007D306B
:10036200FD00FD0BB229FC0BB22965088316A00023
:10037200831267088316A1003B30A2008F20E70A90
:100382000319E80A0730FC007D30FD00FD0BC72988
:10039200FC0BC72965088316A00083126708831621
:1003A200A1002930A2008F20E70A0319E80A0730CA
:1003B200FC007D30FD00FD0BDC29FC0BDC2965080F
:1003C2008316A000831267088316A1002730A200BB
:1003D2008F20E70A0319E80A0730FC007D30FD0090
:1003E200FD0BF129FC0BF12965088316A00083128D
:1003F20067088316A1002530A2008F20E70A03199F
:10040200E80A0730FC007D30FD00FD0B062AFC0BDC
:10041200062A65088316A000831267088316A100C6
:100422002B30A2008F20E70A0319E80A0730FC00EC
:0E0432007D30FD00FD0B1B2AFC0B1B2A080071
:1004400083120313ED01EE0180306E06F000803060
:100450006C067002031D2E2A6B086D020318732AA6
:1004600065088316A0000A30A1003130A2008F2059
:100470000D30FB00AF30FC00B630FD00FD0B3E2A16
:10048000FC0B3E2AFB0B3E2A000065088316A000E9
:100490000A30A1002F30A2008F200D30FB00AF30BA
:1004A000FC00B630FD00FD0B532AFC0B532AFB0B5E
:1004B000532A000065088316A0000A30A1002D30E1
:1004C000A2008F200D30FB00AF30FC00B630FD00E5
:1004D000FD0B682AFC0B682AFB0B682A0000ED0A5A
:0804E0000319EE0A242A0800AA
:0E04E8008312031361088A0060088200080076
:0C04F6008316031301178B170B16080068
:10050200D3200C308316A4002F200230E5000030E7
:10051200E6000530E7000030E80021211A30FB0038
:100522005E30FC006E30FD00FD0B952AFC0B952A17
:10053200FB0B952A00000330E5000030E60009308D
:10054200E7000030E8000430E9000030EA0005303E
:10055200EB000030EC0020221A30FB005E30FC0081
:100562006E30FD00FD0BB32AFC0BB32AFB0BB32A42
:10057200000001308316A4002F201A30FB005E30E9
:10058200FC006E30FD00FD0BC42AFC0BC42AFB0BE1
:10059200C42A000001308316A0000130A10083129A
:1005A20020088316A2008F201A30FB005E30FC0068
:1005B2006E30FD00FD0BDB2AFC0BDB2AFB0BDB2A7A
:1005C200000002308316A0000130A100831224082B
:1005D2008316A2008F201A30FB005E30FC006E30C2
:1005E200FD00FD0BF22AFC0BF22AFB0BF22A0000A3
:1005F20003308316A0000130A10083122308831662
:10060200A2008F201A30FB005E30FC006E30FD002D
:10061200FD0B092BFC0B092BFB0B092B000008001F
:1006220074228A110A128000840AE00A0319E10A7C
:08063200F003031D112B080069
:10063A006A237B228122FF3083168600232B242BF8
:1006D40020308400403083120313F0002A30E000FD
:0806E4000330E10011230800BE
:020654005A3416
:0406560050340034E8
:02065A00463424
:02065C004F3419
:04065E002E34003402
:0406620030340034FC
:040666002E340034FA
:04066A0030340034F4
:04066E007C340034A4
:040672002D340034EF
:040676002F340034E9
:04067A0065340034AF
:04067E0047340034C9
:0406820069340034A3
:040686006E3400349A
:04068A0033340034D1
:04068E00763400348A
:0406920020340034DC
:0A069600533469346E3465340034C7
:1006A0005334693467346E3461346C343A34003412
:0206B000003414
:1006B2004634723465347134753465346E3463345F
:0606C20079343A340034E3
:0C06C80050346934473465346E3400341B
:02400E004A2F37
:00000001FF
