:02000000CD2A07
:10000800FF00030E8301C8000A08C9008A018B108B
:100018000130B00049088A00480E8300FF0E7F0EA9
:020028000900CD
:06002A00000000000800C8
:100030000F3083120313FC004730FD00FD0B1E2818
:0A004000FC0B1E2800000000080061
:0E004A00213083120313FD00FD0B292808004E
:1000580083120313DE1B32288713332887175E1B8E
:100068003728071338280717DE1A3C2887123D2837
:1000780087165E1A4128071242280716471846288D
:10008800071547280711871515208711DE194E28EF
:1000980087134F2887175E19532807135428071703
:1000A800DE1858288712592887165E185D28071207
:1000B8005E28071647186228071563280711871551
:1000C80015208711471C6A2818206B28252008004E
:1000D8008312031347105D08DE002C204714080024
:1000E8008628803083120313D9009928C030D9009C
:1000F80099289430D9009928D430D900992880308B
:10010800D9009928831203135908013A031975284D
:100118005908023A03197A285908033A03197D281D
:100128005908043A0319802883285A03F00059080B
:10013800F0077008D9007008DE002C204710DC0199
:100148005C085B07840000080319B2285C085B0799
:1001580084000008DD006C20DC0AA428471408008D
:0E0168008312031346088A004508820008002F
:10017600831203134D08D9004F08DA002430DB0040
:100186007420CF0A0319D00A0330FC009730FD0013
:10019600FD0BCB28FC0BCB28000000004D08D90036
:1001A6004F08DA002230DB007420CF0A0319D00A88
:1001B6000330FC009730FD00FD0BDF28FC0BDF2829
:1001C600000000004D08D9004F08DA002830DB0097
:1001D6007420CF0A0319D00A0330FC009730FD00C3
:1001E600FD0BF328FC0BF328000000004D08D90096
:1001F6004F08DA003D30DB007420CF0A0319D00A1D
:100206000330FC009730FD00FD0B0729FC0B072986
:10021600000000004D08D9004F08DA003B30DB0033
:100226007420CF0A0319D00A0330FC009730FD0072
:10023600FD0B1B29FC0B1B29000000004D08D900F3
:100246004F08DA003930DB007420CF0A0319D00AD0
:100256000330FC009730FD00FD0B2F29FC0B2F29E6
:10026600000000004D08D9004F08DA004330DB00DB
:100276007420CF0A0319D00A0330FC009730FD0022
:10028600FD0B4329FC0B4329000000004D08D90053
:100296004F08DA004130DB007420CF0A0319D00A78
:1002A6000330FC009730FD00FD0B5729FC0B572946
:1002B600000000004D08D9004F08DA003F30DB008F
:1002C6007420CF0A0319D00A0330FC009730FD00D2
:1002D600FD0B6B29FC0B6B29000000004D08D900B3
:1002E6004F08DA002E30DB007420CF0A0319D00A3B
:1002F6000330FC009730FD00FD0B7F29FC0B7F29A6
:10030600000000004D08D9004F08DA002C30DB0051
:100316007420CF0A0319D00A0330FC009730FD0081
:10032600FD0B9329FC0B9329000000004D08D90012
:100336004F08DA002A30DB007420CF0A0319D00AEE
:100346000330FC009730FD00FD0BA729FC0BA72905
:0603560000000000080099
:10035C0083160313871107110712871207138713CC
:10036C00831287110711871307138712071218209E
:10037C0018201820871607168715152087111820A6
:10038C00871515208711182087151520871118201F
:10039C00071287151520871118208715152087112E
:1003AC0087128717871515208711182087130716B2
:1003BC00871515208711071287151520871118200E
:1003CC0087151520871107168715152087111820FA
:1003DC000712871515208711871707178716071619
:0C03EC0087151520871118204714080001
:1003F80083120313D501D60180305606F0008030F1
:1004080054067002031D0A2A530855020318482A85
:100418004F08D7005008D80051084F07F10050087E
:100428000318013E5207F20080307206F000803057
:1004380058067002031D222A57087102031C442A19
:100448004D08D9005708DA002030DB0074200B3043
:10045800FB002630FC005D30FD00FD0B312AFC0B53
:10046800312AFB0B312A000000004D08D90057083B
:10047800DA002630DB007420D70A0319D80A102ABC
:0A048800D50A0319D60A002A08005D
:0C0492008316031301178B170B160800CC
:10049E00AE210C30DE002C200230CD000030CE001C
:1004AE000530CF000030D000BB200B30FB002630D3
:1004BE00FC005D30FD00FD0B622AFC0B622AFB0B7B
:1004CE00622A000000000330CD000030CE0009305B
:1004DE00CF000030D0000430D1000030D200033005
:1004EE00D3000030D400FC211530FB004B30FC0053
:1004FE00BE30FD00FD0B812AFC0B812AFB0B812AED
:0A050E0000000130DE002C20080080
:100518009E2A803083120313CA00B12AC030CA0051
:10052800B12A9430CA00B12AD430CA00B12A803026
:10053800CA00B12A831203134A08013A03198D2A03
:100548004A08023A0319922A4A08033A0319952AD3
:100558004A08043A0319982A9B2A4B03F0004A08D0
:10056800F0077008CA0047147008DE002C204710F6
:0A0578004C08DE002C204714080098
:10058200B4208A110A128000840AC50A0319C60A15
:08059200F003031DC12A08005B
:10059A0028234F224922081401308312CD0000304B
:1005AA00CE000130CF000030D000BB200230CA009C
:1005BA000130CB001D30CC008C220330D900013031
:1005CA00DA003130DB0074203008013A031DF12AC9
:0C05DA000130DE002C20B001E92AF22ADA
:1006500020308400253083120313F000F830C500E9
:080660000230C600C1220800AF
:0405F0002E34003471
:0405F4006934003432
:0405F8005034003447
:0405FC002034003473
:040600004734003447
:04060400303400345A
:040608002E34003458
:04060C003034003452
:020610000034B4
:100612005334693467346E3461346C343A340034A0
:04062200203400344C
:040626006E340034FA
:04062A0065340034FF
:04062E002E34003432
:040632003334003429
:0406360076340034E2
:10063A004634723465347134753465346E346334D7
:06064A0079343A3400345B
:02400E004A2F37
:00000001FF
