:02000000432A91
:0E000600213083120313FD00FD0B07280800B4
:06001400000000000800DE
:10001A000F3083120313FC004730FD00FD0B132839
:0A002A00FC0B132800000000080082
:1000340083120313D01B2028871321288717501BF2
:100044002528071326280717D01A2A2887122B28B1
:100054008716501A2F280712302807163E183428FE
:1000640007153528071187150A208711D0193C2850
:1000740087133D288717501941280713422807176B
:10008400D018462887124728871650184B2807127D
:100094004C2807163E1850280715512807118715B4
:1000A4000A2087113E1C58280D20592803200800D7
:1000B400831203133E104F08D0001A203E14080088
:0E00C400831203133D088A003C0882000800E6
:1000D2007B28803083120313CB008E28C030CB00E4
:1000E2008E289430CB008E28D430CB008E288030DE
:1000F200CB008E28831203134B08013A03196A2896
:100102004B08023A03196F284B08033A0319722865
:100112004B08043A0319752878284C03F0004B0861
:10012200F0077008CB007008D0001A203E10CE01F4
:100132004E084D07840000080319A7284E084D07F2
:1001420084000008CF005A20CE0A99283E140800E5
:10015200831203133F08CB004108CC002630CD00A8
:100162006920C10A0319C20A0330FC009730FD005E
:10017200FD0BB928FC0BB928000000003F08CB009A
:100182004108CC002030CD006920C10A0319C20AFF
:100192000330FC009730FD00FD0BCD28FC0BCD2871
:1001A200000000003F08CB004108CC002430CD0005
:1001B2006920C10A0319C20A0330FC009730FD000E
:1001C200FD0BE128FC0BE128000000003F08CB00FA
:1001D2004108CC002230CD006920C10A0319C20AAD
:1001E2000330FC009730FD00FD0BF528FC0BF528D1
:1001F200000000003F08CB004108CC002830CD00B1
:100202006920C10A0319C20A0330FC009730FD00BD
:10021200FD0B0929FC0B0929000000003F08CB0057
:100222004108CC003430CD006920C10A0319C20A4A
:100232000330FC009730FD00FD0B1D29FC0B1D292E
:10024200000000003F08CB004108CC003230CD0056
:100252006920C10A0319C20A0330FC009730FD006D
:10026200FD0B3129FC0B3129000000003F08CB00B7
:100272004108CC003630CD006920C10A0319C20AF8
:100282000330FC009730FD00FD0B4529FC0B45298E
:10029200000000003F08CB004108CC003A30CD00FE
:1002A2006920C10A0319C20A0330FC009730FD001D
:1002B200FD0B5929FC0B5929000000003F08CB0017
:1002C2004108CC003830CD006920C10A0319C20AA6
:1002D2000330FC009730FD00FD0B6D29FC0B6D29EE
:1002E200000000003F08CB004108CC003030CD00B8
:1002F2006920C10A0319C20A0330FC009730FD00CD
:10030200FD0B8129FC0B8129000000003F08CB0076
:100312004108CC002C30CD006920C10A0319C20A61
:100322000330FC009730FD00FD0B9529FC0B95294D
:06033200000000000800BD
:1003380083160313871107110712871207138713F0
:1003480083128711071187130713871207120D20CD
:100358000D200D208716071687150A2087110D20F6
:1003680087150A2087110D2087150A2087110D206F
:10037800071287150A2087110D2087150A20871173
:100388008712871787150A2087110D2087130716EC
:1003980087150A208711071287150A2087110D2053
:1003A80087150A208711071687150A2087110D203F
:1003B800071287150A208711871707178716071648
:0C03C80087150A2087110D203E14080044
:1003D40083120313C701C80180304806F00080303F
:1003E40046067002031DF829450847020318362AF9
:1003F4004108C9004208CA0043084107F100420805
:100404000318013E4407F20080307206F000803089
:100414004A067002031D102A49087102031C322A7D
:100424003F08CB004908CC002A30CD0069200B30AE
:10043400FB002630FC005D30FD00FD0B1F2AFC0B89
:100444001F2AFB0B1F2A000000003F08CB004908AD
:10045400CC002E30CD006920C90A0319CA0AFE292E
:0A046400C70A0319C80AEE290800B0
:10046E0062208A110A128000840ABC0A0319BD0A8E
:08047E00F003031D372A0800FA
:10048600693083120313A000A1016530A200A30105
:100496004730A400A5015030A600A7016E30A80081
:1004A600A9012E30AA00AB013030AC00AD012030DE
:1004B600AE00AF012E30B000B1017630B200B3010C
:1004C6002030B400B5013330B600B7013030B80083
:1004D600B9012E30BA00BB019C210C30D0001A2085
:1004E6000230BF000030C0000530C1000030C2003D
:1004F600A9200B30FB002630FC005D30FD00FD0B13
:10050600822AFC0B822AFB0B822A000000000330A1
:10051600BF000030C0000930C1000030C200043006
:10052600C3000030C4000330C5000030C600EA2115
:100536001530FB004B30FC00BE30FD00FD0BA12A40
:0C054600FC0BA12AFB0BA12A0000A82A34
:02400E004A2F37
:00000001FF
