:02000000B22B21
:020006000800F0
:10000800FF00030E8301EE000A08ED008A01700864
:10001800A0008B104308003A031D15280130C300C7
:100028001A284308013A031D1A28C3012008F000C2
:0E0038006D088A006E0E8300FF0E7F0E090019
:0C004600000000000000000000000800A6
:0E005200533083120313FD00FD0B2D28080010
:10006000243083120313FC00B530FD00FD0B36284D
:0A007000FC0B362800000000080019
:10007A0083160313B61B4428831287134628831258
:10008A0087178316361B4C28831207134E288312B0
:10009A0007178316B61A5428831287125628831212
:1000AA0087168316361A5C28831207125E28831273
:1000BA0007166C186228071563280711871523206D
:1000CA0087118316B6196C28831287136E28831238
:1000DA008717831636197428831207137628831212
:1000EA0007178316B6187C28831287127E28831274
:1000FA0087168316361884288312071286288312D5
:10010A0007166C188A2807158B28071187152320CC
:0E011A0087116C1C92283020932829200800A1
:10012800831203136C1083163508B6003D206C1437
:020138000800BD
:10013A00AF28803083160313B200C228C030B20041
:10014A00C2289430B200C228D430B200C22880300B
:10015A00B200C228831603133208013A03199E28F3
:10016A003208023A0319A3283208033A0319A628C7
:10017A003208043A0319A928AC283303F0003208DC
:10018A00F0077008B2007008B6003D206C10EF014D
:10019A006F0883163407840000080319DE288312C7
:1001AA006F088316340784000008B5009420EF0A0C
:0801BA00CD2883126C1408002B
:0E01C200831203136B088A006A08820008008B
:1001D000831603132808B2002A08B3004A30B4007B
:1001E0009D208316AA0A0319AB0A0730FC007D3054
:1001F000FD00FD0BF928FC0BF9282808B2002A089D
:10020000B3004830B4009D208316AA0A0319AB0A34
:100210000730FC007D30FD00FD0B0C29FC0B0C2988
:100220002808B2002A08B3004630B4009D20831687
:10023000AA0A0319AB0A0730FC007D30FD00FD0B54
:100240001F29FC0B1F292808B2002A08B3004C30D4
:10025000B4009D208316AA0A0319AB0A0730FC00DC
:100260007D30FD00FD0B3229FC0B32292808B2003D
:100270002A08B3005230B4009D208316AA0A03193D
:10028000AB0A0730FC007D30FD00FD0B4529FC0B5F
:1002900045292808B2002A08B3005030B4009D2038
:1002A0008316AA0A0319AB0A0730FC007D30FD0053
:1002B000FD0B5829FC0B58292808B2002A08B30066
:1002C0004E30B4009D208316AA0A0319AB0A0730EA
:1002D000FC007D30FD00FD0B6B29FC0B6B29280811
:1002E000B2002A08B3004430B4009D208316AA0A45
:1002F0000319AB0A0730FC007D30FD00FD0B7E29A1
:10030000FC0B7E292808B2002A08B3003D30B40057
:100310009D208316AA0A0319AB0A0730FC007D3022
:10032000FD00FD0B9129FC0B91292808B2002A0839
:10033000B3003B30B4009D208316AA0A0319AB0A10
:100340000730FC007D30FD00FD0BA429FC0BA42927
:100350002808B2002A08B3003930B4009D20831663
:10036000AA0A0319AB0A0730FC007D30FD00FD0B23
:10037000B729FC0BB7292808B2002A08B3003F3080
:10038000B4009D208316AA0A0319AB0A0730FC00AB
:0E0390007D30FD00FD0BCA29FC0BCA290800B8
:10039E00831603138711071107128712071387138A
:1003AE008312871107118713071387120712302044
:1003BE00302030208716071687152320871130200E
:1003CE008715232087113020871523208711302091
:1003DE0007128715232087113020871523208711B8
:1003EE00871287178715232087113020871307164A
:1003FE008715232087110712871523208711302098
:10040E008715232087110716871523208711302083
:10041E0007128715232087118717071787160716C8
:0C042E0087152320871130206C14080073
:10043A0083160313AA01AB0180302B06F00080302B
:10044A007002031D2A2A15302A020318382A28089E
:10045A00B2002A08B3004130B4009D208316AA0ACC
:08046A000319AB0A212A080066
:1004720083160313B001B10180303106F0008030E1
:100482002F067002031D472A2E08300203188C2AF9
:100492002808B2000A30B3003130B4009D200D307C
:1004A200FB00AF30FC00B630FD00FD0B562AFC0B02
:1004B200562AFB0B562A000083162808B2000A307F
:1004C200B3002F30B4009D200D30FB00AF30FC0094
:1004D200B630FD00FD0B6B2AFC0B6B2AFB0B6B2A63
:1004E200000083162808B2000A30B3003730B40087
:1004F2009D200D30FB00AF30FC00B630FD00FD0B3F
:10050200802AFC0B802AFB0B802A00008316B00A8B
:080512000319B10A3D2A08009B
:10051A009C2A273083120313B4000130B50000303F
:10052A00B600AE2A2230B400B501B601AE2A831253
:10053A00031300303606031DA42A003035060319BA
:10054A008E2A00303606031DAC2A013035060319FF
:10055A00972A03308316A8000030A9001D22023012
:10056A00FB004530FC00A930FD00FD0BBA2AFC0B4C
:10057A00BA2AFB0BBA2A000000000330B20001308D
:10058A00B300831221088316B4009D200230FB00B9
:10059A004530FC00A930FD00FD0BD12AFC0BD12A05
:1005AA00FB0BD12A0000000003308316B200093089
:1005BA00B300831234088316B4009D200730FB0071
:1005CA005830FC005930FD00FD0BE92AFC0BE92AE2
:0A05DA00FB0BE92A000000000800F6
:1005E400CF210C308316B6003D2002308316A800BC
:1005F4000030A9000530AA000030AB00E82002302A
:10060400FB004530FC00A930FD00FD0B072BFC0B63
:10061400072BFB0B072B000000000330A800003061
:10062400A9000930AA000030AB000430AC0000304F
:10063400AD000330AE000030AF0039220230FB00C1
:100644004530FC00A930FD00FD0B262BFC0B262BAE
:10065400FB0B262B000000000130B6003D200230C9
:10066400FB004530FC00A930FD00FD0B372BFC0BD3
:10067400372BFB0B372B0000000001308316B20030
:100684000130B30083122E088316B4009D2002307B
:10069400FB004530FC00A930FD00FD0B4F2BFC0B8B
:1006A4004F2BFB0B4F2B0000000002308316B200CF
:1006B4000130B300831233088316B4009D20023046
:1006C400FB004530FC00A930FD00FD0B672BFC0B43
:1006D400672BFB0B672B0000000003308316B2006E
:1006E4000130B300831221088316B4009D20023028
:1006F400FB004530FC00A930FD00FD0B7F2BFC0BFB
:100704007F2BFB0B7F2B0000000003308316B2000D
:100714000130B300831221088316B4009D200230F7
:10072400FB004530FC00A930FD00FD0B972BFC0BB2
:0C073400972BFB0B972B00000000080027
:0C0740008316031301178B170B1608001B
:10074C00E1208A110A128000840AEA0A0319EB0AD2
:08075C00F003031DA62B0800A9
:100764002A24A023F222FF30831686008312430832
:10077400013A031DC22B01308316B6003D20C3018C
:100784004308003A031DC82B0130C300061FCB2BBE
:100794008D22061BD02B861BD02BD12B0320B82BEC
:0207A400D22B56
:1008540021308400493083120313F000D830EA00B9
:100864000330EB00A623A030840008300313F0000B
:0C0874002130EA000430EB00A62308004D
:0207B000A03473
:0A07B200533469346E3465340034AA
:0E07BC00533471347534613472346534003452
:0207CA005F349A
:0407CC002D34003494
:0407D0002F3400348E
:0207D40054349B
:0207D600653488
:0407D80000340034B5
:0407DC007C34003435
:0407E0002E3400347F
:0407E4003034003479
:0407E8002E34003477
:0407EC003034003471
:0407F000203400347D
:0207F40063346C
:0407F6003334003464
:0407FA00473400344C
:0407FE006934003426
:04080200503400343A
:040806006534003421
:04080A00763400340C
:04080E00203400345E
:040812006E3400340C
:100816004634723465347134753465346E346334F9
:0608260079343A3400347D
:0C082C0050346934473465346E340034B5
:0A083800533469346E346534003423
:100842005334693467346E3461346C343A3400346E
:02400E004A2F37
:00000001FF
