:02000000F629DF
:0E000600213083120313FD00FD0B07280800B4
:100014000F3083120313FC004730FD00FD0B102842
:0A002400FC0B10280000000008008B
:06002E00000000000800C4
:1000340083120313C41B2028871321288717441B0A
:100044002528071326280717C41A2A2887122B28BD
:100054008716441A2F280712302807163A1834280E
:10006400071535280711871517208711C4193C284F
:1000740087133D2887174419412807134228071777
:10008400C418462887124728871644184B28071295
:100094004C2807163A1850280715512807118715B8
:1000A400172087113A1C58280A20592803200800D1
:1000B400831203133A104308C4001A203A140800A8
:0E00C4008312031339088A00380882000800EE
:1000D2007B28803083120313BF008E28C030BF00FC
:1000E2008E289430BF008E28D430BF008E288030F6
:1000F200BF008E28831203133F08013A03196A28AE
:100102003F08023A03196F283F08033A031972287D
:100112003F08043A0319752878284003F0003F0885
:10012200F0077008BF007008C4001A203A10C2011C
:1001320042084107840000080319A7284208410722
:1001420084000008C3005A20C20A99283A14080001
:1001520083160313871107110712871207138713D8
:1001620083128711071187130713871207120A20B8
:100172000A200A20871607168715172087110A20DA
:100182008715172087110A208715172087110A2043
:1001920007128715172087110A2087151720871144
:1001A200871287178715172087110A2087130716CA
:1001B20087151720871107128715172087110A2024
:1001C20087151720871107168715172087110A2010
:1001D2000712871517208711871707178716071623
:0C01E2008715172087110A203A14080026
:1001EE00831203133B08BF003D08C0002230C1003C
:1001FE006920BD0A0319BE0A0330FC009730FD00CA
:10020E00FD0B0729FC0B0729000000003B08BF006F
:10021E003D08C0002030C1006920BD0A0319BE0A86
:10022E000330FC009730FD00FD0B1B29FC0B1B2936
:10023E00000000003B08BF003D08C0003030C10088
:10024E006920BD0A0319BE0A0330FC009730FD0079
:10025E00FD0B2F29FC0B2F29000000003B08BF00CF
:10026E003D08C0002E30C1006920BD0A0319BE0A28
:10027E000330FC009730FD00FD0B4329FC0B432996
:10028E00000000003B08BF003D08C0003230C10036
:10029E006920BD0A0319BE0A0330FC009730FD0029
:1002AE00FD0B5729FC0B5729000000003B08BF002F
:1002BE003D08C0003630C1006920BD0A0319BE0AD0
:1002CE000330FC009730FD00FD0B6B29FC0B6B29F6
:1002DE00000000003B08BF003D08C0003430C100E4
:1002EE006920BD0A0319BE0A0330FC009730FD00D9
:1002FE00FD0B7F29FC0B7F29000000003B08BF008F
:10030E003D08C0002C30C1006920BD0A0319BE0A89
:10031E000330FC009730FD00FD0B9329FC0B932955
:10032E00000000003B08BF003D08C0002630C100A1
:10033E006920BD0A0319BE0A0330FC009730FD0088
:10034E00FD0BA729FC0BA729000000003B08BF00EE
:10035E003D08C0002430C1006920BD0A0319BE0A41
:10036E000330FC009730FD00FD0BBB29FC0BBB29B5
:10037E00000000003B08BF003D08C0002830C1004F
:10038E006920BD0A0319BE0A0330FC009730FD0038
:10039E00FD0BCF29FC0BCF29000000003B08BF004E
:1003AE003D08C0002A30C1006920BD0A0319BE0AEB
:1003BE000330FC009730FD00FD0BE329FC0BE32915
:0603CE0000000000080021
:1003D40062208A110A128000840AB80A0319B90A31
:0803E400F003031DEA290800E3
:1003EC00693083120313A000A1015030A200A301B5
:1003FC003030A400A5012E30A600A7012E30A80095
:10040C00A9013030AA00AB013330AC00AD0165302E
:10041C00AE00AF014730B000B1016E30B200B30195
:10042C007630B400B5012030B600B701A9200C30ED
:10043C00C4001A200230BB000030BC000530BD00E7
:08044C000030BE00F720292A50
:02400E004A2F37
:00000001FF
