:020000008A2A4A
:10000800FF00030E8301DC000A08DB008A018B1065
:100018000130AF005B088A005C0E8300FF0E7F0E84
:020028000900CD
:0E002A00213083120313FD00FD0B192808007E
:06003800000000000800BA
:10003E000F3083120313FC004730FD00FD0B252803
:0A004E00FC0B25280000000008004C
:1000580083120313ED1B32288713332887176D1B70
:100068003728071338280717ED1A3C2887123D2828
:1000780087166D1A41280712422807165D18462868
:1000880007154728071187151C208711ED194E28D9
:1000980087134F2887176D195328071354280717F4
:1000A800ED1858288712592887166D185D280712E9
:1000B8005E2807165D18622807156328071187153B
:1000C8001C2087115D1C6A281F206B28152008003A
:1000D800831203135D106C08ED002C205D140800DA
:1000E8008628803083120313E8009928C030E8007E
:1000F80099289430E8009928D430E800992880306D
:10010800E8009928831203136808013A031975282F
:100118006808023A03197A286808033A03197D28FF
:100128006808043A0319802883286903F0006808DE
:10013800F0077008E8007008ED002C205D10EB0156
:100148006B086A07840000080319B2286B086A075D
:1001580084000008EC006C20EB0AA4285D14080059
:1001680083160313871107110712871207138713C2
:1001780083128711071187130713871207121F208D
:100188001F201F208716071687151C2087111F2080
:1001980087151C2087111F2087151C2087111F20F9
:1001A800071287151C2087111F2087151C2087110F
:1001B8008712871787151C2087111F20871307169A
:1001C80087151C208711071287151C2087111F20EF
:1001D80087151C208711071687151C2087111F20DB
:1001E800071287151C208711871707178716071608
:0C01F80087151C2087111F205D140800D3
:1002040083120313E601E70180306706F0008030B3
:1002140065067002031D102964086602031840294C
:100224005E08E8000A30E9002D30EA0074200B3043
:10023400FB002630FC005D30FD00FD0B1F29FC0B8C
:100244001F29FB0B1F29000000005E08E8000A308C
:10025400E9002B30EA0074200B30FB002630FC0050
:100264005D30FD00FD0B3429FC0B3429FB0B3429D4
:0E02740000000000E60A0319E70A0629080048
:10028200831203135E08E8006008E9002030EA00E8
:100292007420E00A0319E10A0330FC009730FD00E4
:1002A200FD0B5129FC0B5129000000005E08E800FB
:1002B2006008E9002630EA007420E00A0319E10A26
:1002C2000330FC009730FD00FD0B6529FC0B65290E
:1002D200000000005E08E8006008E9002430EA003F
:1002E2007420E00A0319E10A0330FC009730FD0094
:1002F200FD0B7929FC0B7929000000005E08E8005B
:100302006008E9002230EA007420E00A0319E10AD9
:100312000330FC009730FD00FD0B8D29FC0B8D296D
:10032200000000005E08E8006008E9002830EA00EA
:100332007420E00A0319E10A0330FC009730FD0043
:10034200FD0BA129FC0BA129000000005E08E800BA
:100352006008E9003830EA007420E00A0319E10A73
:100362000330FC009730FD00FD0BB529FC0BB529CD
:10037200000000005E08E8006008E9003630EA008C
:100382007420E00A0319E10A0330FC009730FD00F3
:10039200FD0BC929FC0BC929000000005E08E8001A
:1003A2006008E9003430EA007420E00A0319E10A27
:1003B2000330FC009730FD00FD0BDD29FC0BDD292D
:1003C200000000005E08E8006008E9003E30EA0034
:1003D2007420E00A0319E10A0330FC009730FD00A3
:1003E200FD0BF129FC0BF129000000005E08E8007A
:1003F2006008E9003C30EA007420E00A0319E10ACF
:100402000330FC009730FD00FD0B052AFC0B052A8A
:10041200000000005E08E8006008E9003A30EA00E7
:100422007420E00A0319E10A0330FC009730FD0052
:10043200FD0B192AFC0B192A000000005E08E800D7
:100442006008E9003230EA007420E00A0319E10A88
:100452000330FC009730FD00FD0B2D2AFC0B2D2AEA
:060462000000000008008C
:0E046800831203135A088A0059088200080004
:10047600B4200C30ED002C200230DE000030DF000E
:100486000530E0000030E10041210B30FB00263052
:10049600FC005D30FD00FD0B4E2AFC0B4E2AFB0BCB
:1004A6004E2A000000000330DE000030DF00093075
:1004B600E0000030E1000430E2000030E3000330E9
:1004C600E4000030E50002211530FB004B30FC0053
:1004D600BE30FD00FD0B6D2AFC0B6D2AFB0B6D2A51
:0A04E60000000130ED002C2008009A
:0C04F0008316031301178B170B1608006E
:1004FC0034228A110A128000840AD90A0319DA0AF2
:08050C00F003031D7E2A080024
:10051400EC223B227822081401308312E8000130D7
:10052400E9002A08EA0074200230E8000130E900FA
:100534003108EA0074200330E8000130E900300893
:10054400EA0074202F08013A031DAC2A0130ED00A3
:080554002C20AF01A42AAD2AFE
:1005D80020308400393083120313F000B330D9007F
:0805E8000230DA007E22080057
:0405660050340034D9
:04056A0065340034C0
:04056E0047340034DA
:0405720069340034B4
:040576006E340034AB
:02057A0040340B
:04057C002D340034E6
:040580002F340034E0
:02058400003441
:020586004634F9
:020588004E34EF
:04058A0030340034D5
:04058E0033340034CE
:040592007634003487
:0405960020340034D9
:04059A002E340034C7
:04059E0030340034C1
:0405A2002E340034BF
:0C05A60050346934473465346E3400343E
:1005B2005334693467346E3461346C343A34003401
:1005C2004634723465347134753465346E34633450
:0605D20079343A340034D4
:02400E004A2F37
:00000001FF
